{
  "address": "0xe9eAb0450a1Bc55ce6f13CdBA69CCE9E67d61790",
  "abi": [
    {
      "inputs": [],
      "stateMutability": "nonpayable",
      "type": "constructor"
    },
    {
      "inputs": [
        {
          "components": [
            {
              "internalType": "address payable",
              "name": "payee",
              "type": "address"
            },
            {
              "internalType": "uint16",
              "name": "bps",
              "type": "uint16"
            }
          ],
          "internalType": "struct ISplitter.Shares[]",
          "name": "shares",
          "type": "tuple[]"
        }
      ],
      "name": "initialize",
      "outputs": [],
      "stateMutability": "nonpayable",
      "type": "function"
    },
    {
      "inputs": [
        {
          "internalType": "address",
          "name": "from",
          "type": "address"
        },
        {
          "internalType": "address payable",
          "name": "to",
          "type": "address"
        },
        {
          "internalType": "uint16",
          "name": "amount",
          "type": "uint16"
        }
      ],
      "name": "transferTo",
      "outputs": [],
      "stateMutability": "nonpayable",
      "type": "function"
    },
    {
      "stateMutability": "payable",
      "type": "receive"
    }
  ],
  "transactionHash": "0xf918e15557a1a1a9a8dbd6a5684087bf62ed34669170d92076c1cba13eae7f98",
  "args": [],
  "solcInputHash": "060bfd410e505c6a7b6baeae41816d77",
  "bytecode": "0x608060405234801561001057600080fd5b50600054610100900460ff1661002c5760005460ff1615610034565b6100346100d5565b61009b5760405162461bcd60e51b815260206004820152602e60248201527f496e697469616c697a61626c653a20636f6e747261637420697320616c72656160448201526d191e481a5b9a5d1a585b1a5e995960921b606482015260840160405180910390fd5b600054610100900460ff161580156100bd576000805461ffff19166101011790555b80156100cf576000805461ff00191690555b506100f6565b60006100ea306100f060201b61075e1760201c565b15905090565b3b151590565b610d46806101056000396000f3fe60806040526004361061002d5760003560e01c80637768f02014610102578063cb88ac161461012457600080fd5b366100fd574760005b6001548110156100f9576000612710600260006001858154811061005c5761005c610998565b600091825260208083209091015473ffffffffffffffffffffffffffffffffffffffff16835282019290925260400190205461009c9061ffff16856109f6565b6100a69190610a33565b90506100e6600183815481106100be576100be610998565b60009182526020909120015473ffffffffffffffffffffffffffffffffffffffff1682610144565b50806100f181610a6e565b915050610036565b5050005b600080fd5b34801561010e57600080fd5b5061012261011d366004610ae3565b6102a8565b005b34801561013057600080fd5b5061012261013f366004610bd1565b6104d3565b804710156101b3576040517f08c379a000000000000000000000000000000000000000000000000000000000815260206004820152601d60248201527f416464726573733a20696e73756666696369656e742062616c616e636500000060448201526064015b60405180910390fd5b60008273ffffffffffffffffffffffffffffffffffffffff168260405160006040518083038185875af1925050503d806000811461020d576040519150601f19603f3d011682016040523d82523d6000602084013e610212565b606091505b50509050806102a3576040517f08c379a000000000000000000000000000000000000000000000000000000000815260206004820152603a60248201527f416464726573733a20756e61626c6520746f2073656e642076616c75652c207260448201527f6563697069656e74206d6179206861766520726576657274656400000000000060648201526084016101aa565b505050565b73ffffffffffffffffffffffffffffffffffffffff831660009081526002602052604090205461ffff16610338576040517f08c379a000000000000000000000000000000000000000000000000000000000815260206004820152601f60248201527f53706c69747465723a206e6f2073686172657320746f207472616e736665720060448201526064016101aa565b61ffff81161580610375575073ffffffffffffffffffffffffffffffffffffffff831660009081526002602052604090205461ffff808316911610155b6103db576040517f08c379a000000000000000000000000000000000000000000000000000000000815260206004820152601c60248201527f53706c69747465723a20657863656564696e67207472616e736665720000000060448201526064016101aa565b73ffffffffffffffffffffffffffffffffffffffff831660009081526002602052604090205461ffff9081169082161580159061041f57508061ffff168261ffff16105b156104275750805b73ffffffffffffffffffffffffffffffffffffffff83166000908152600260205260408120805483929061046090849061ffff16610caf565b82546101009290920a61ffff81810219909316918316021790915573ffffffffffffffffffffffffffffffffffffffff86166000908152600260205260408120805485945090926104b391859116610cd5565b92506101000a81548161ffff021916908361ffff16021790555050505050565b600054610100900460ff166104ee5760005460ff16156104f2565b303b155b61057e576040517f08c379a000000000000000000000000000000000000000000000000000000000815260206004820152602e60248201527f496e697469616c697a61626c653a20636f6e747261637420697320616c72656160448201527f647920696e697469616c697a656400000000000000000000000000000000000060648201526084016101aa565b600054610100900460ff161580156105bd57600080547fffffffffffffffffffffffffffffffffffffffffffffffffffffffffffff0000166101011790555b6000825111610628576040517f08c379a000000000000000000000000000000000000000000000000000000000815260206004820152601360248201527f53706c69747465723a206e6f207061796565730000000000000000000000000060448201526064016101aa565b6000805b83518110156106be5761067d84828151811061064a5761064a610998565b60200260200101516000015185838151811061066857610668610998565b60200260200101516020015161ffff16610764565b83818151811061068f5761068f610998565b60200260200101516020015161ffff16826106aa9190610cf8565b9150806106b681610a6e565b91505061062c565b50806127101461072a576040517f08c379a000000000000000000000000000000000000000000000000000000000815260206004820181905260248201527f53686172657320646f6e27742073756d20757020746f2031303030302070627360448201526064016101aa565b50801561075a57600080547fffffffffffffffffffffffffffffffffffffffffffffffffffffffffffff00ff1690555b5050565b3b151590565b73ffffffffffffffffffffffffffffffffffffffff82166107e1576040517f08c379a000000000000000000000000000000000000000000000000000000000815260206004820181905260248201527f53706c69747465723a206163636f756e7420697320307830206164647265737360448201526064016101aa565b6000811180156107f2575061271081105b610858576040517f08c379a000000000000000000000000000000000000000000000000000000000815260206004820152601860248201527f53706c69747465723a20696e76616c696420736861726573000000000000000060448201526064016101aa565b73ffffffffffffffffffffffffffffffffffffffff821660009081526002602052604090205461ffff16156108e9576040517f08c379a000000000000000000000000000000000000000000000000000000000815260206004820152601c60248201527f53706c69747465723a206163636f756e74206475706c6963617465640000000060448201526064016101aa565b600180548082019091557fb10e2d527612073b26eecdfd717e6a320cf44b4afac2b0732d9fcbe2b7fa0cf60180547fffffffffffffffffffffffff00000000000000000000000000000000000000001673ffffffffffffffffffffffffffffffffffffffff93909316928317905560009182526002602052604090912080547fffffffffffffffffffffffffffffffffffffffffffffffffffffffffffff00001661ffff909216919091179055565b7f4e487b7100000000000000000000000000000000000000000000000000000000600052603260045260246000fd5b7f4e487b7100000000000000000000000000000000000000000000000000000000600052601160045260246000fd5b6000817fffffffffffffffffffffffffffffffffffffffffffffffffffffffffffffffff0483118215151615610a2e57610a2e6109c7565b500290565b600082610a69577f4e487b7100000000000000000000000000000000000000000000000000000000600052601260045260246000fd5b500490565b60007fffffffffffffffffffffffffffffffffffffffffffffffffffffffffffffffff821415610aa057610aa06109c7565b5060010190565b73ffffffffffffffffffffffffffffffffffffffff81168114610ac957600080fd5b50565b803561ffff81168114610ade57600080fd5b919050565b600080600060608486031215610af857600080fd5b8335610b0381610aa7565b92506020840135610b1381610aa7565b9150610b2160408501610acc565b90509250925092565b7f4e487b7100000000000000000000000000000000000000000000000000000000600052604160045260246000fd5b6040805190810167ffffffffffffffff81118282101715610b7c57610b7c610b2a565b60405290565b604051601f82017fffffffffffffffffffffffffffffffffffffffffffffffffffffffffffffffe016810167ffffffffffffffff81118282101715610bc957610bc9610b2a565b604052919050565b60006020808385031215610be457600080fd5b823567ffffffffffffffff80821115610bfc57600080fd5b818501915085601f830112610c1057600080fd5b813581811115610c2257610c22610b2a565b610c30848260051b01610b82565b818152848101925060069190911b830184019087821115610c5057600080fd5b928401925b81841015610ca45760408489031215610c6e5760008081fd5b610c76610b59565b8435610c8181610aa7565b8152610c8e858701610acc565b8187015283526040939093019291840191610c55565b979650505050505050565b600061ffff808316818516808303821115610ccc57610ccc6109c7565b01949350505050565b600061ffff83811690831681811015610cf057610cf06109c7565b039392505050565b60008219821115610d0b57610d0b6109c7565b50019056fea2646970667358221220f7715a3e1e587a3a175b7d91211c13bb0ef694b4f68efef0e96c9509e19878b564736f6c63430008090033",
  "devdoc": {
    "kind": "dev",
    "methods": {},
    "version": 1
  },
  "userdoc": {
    "kind": "user",
    "methods": {},
    "version": 1
  },
  "storageLayout": {
    "storage": [
      {
        "astId": 1672,
        "contract": "contracts/splitters/PushSplitter.sol:PushSplitter",
        "label": "_initialized",
        "offset": 0,
        "slot": "0",
        "type": "t_bool"
      },
      {
        "astId": 1675,
        "contract": "contracts/splitters/PushSplitter.sol:PushSplitter",
        "label": "_initializing",
        "offset": 1,
        "slot": "0",
        "type": "t_bool"
      },
      {
        "astId": 3297,
        "contract": "contracts/splitters/PushSplitter.sol:PushSplitter",
        "label": "_payees",
        "offset": 0,
        "slot": "1",
        "type": "t_array(t_address)dyn_storage"
      },
      {
        "astId": 3301,
        "contract": "contracts/splitters/PushSplitter.sol:PushSplitter",
        "label": "_shares",
        "offset": 0,
        "slot": "2",
        "type": "t_mapping(t_address,t_uint16)"
      }
    ],
    "types": {
      "t_address": {
        "encoding": "inplace",
        "label": "address",
        "numberOfBytes": "20"
      },
      "t_array(t_address)dyn_storage": {
        "base": "t_address",
        "encoding": "dynamic_array",
        "label": "address[]",
        "numberOfBytes": "32"
      },
      "t_bool": {
        "encoding": "inplace",
        "label": "bool",
        "numberOfBytes": "1"
      },
      "t_mapping(t_address,t_uint16)": {
        "encoding": "mapping",
        "key": "t_address",
        "label": "mapping(address => uint16)",
        "numberOfBytes": "32",
        "value": "t_uint16"
      },
      "t_uint16": {
        "encoding": "inplace",
        "label": "uint16",
        "numberOfBytes": "2"
      }
    }
  }
}