{
  "address": "0x93368FF9E04bfFB11F93cEB867428FBe221812cC",
  "abi": [
    {
      "inputs": [],
      "stateMutability": "nonpayable",
      "type": "constructor"
    },
    {
      "anonymous": false,
      "inputs": [
        {
          "indexed": false,
          "internalType": "address",
          "name": "to",
          "type": "address"
        }
      ],
      "name": "PaymentFailed",
      "type": "event"
    },
    {
      "anonymous": false,
      "inputs": [
        {
          "indexed": false,
          "internalType": "address",
          "name": "from",
          "type": "address"
        },
        {
          "indexed": false,
          "internalType": "uint256",
          "name": "amount",
          "type": "uint256"
        }
      ],
      "name": "PaymentReceived",
      "type": "event"
    },
    {
      "anonymous": false,
      "inputs": [
        {
          "indexed": false,
          "internalType": "address",
          "name": "to",
          "type": "address"
        },
        {
          "indexed": false,
          "internalType": "uint256",
          "name": "amount",
          "type": "uint256"
        }
      ],
      "name": "PaymentReleased",
      "type": "event"
    },
    {
      "inputs": [
        {
          "components": [
            {
              "internalType": "address payable",
              "name": "payee",
              "type": "address"
            },
            {
              "internalType": "uint16",
              "name": "bps",
              "type": "uint16"
            }
          ],
          "internalType": "struct ISplitter.Shares[]",
          "name": "_shares",
          "type": "tuple[]"
        }
      ],
      "name": "initialize",
      "outputs": [],
      "stateMutability": "nonpayable",
      "type": "function"
    },
    {
      "inputs": [
        {
          "internalType": "address",
          "name": "account",
          "type": "address"
        }
      ],
      "name": "released",
      "outputs": [
        {
          "internalType": "uint256",
          "name": "",
          "type": "uint256"
        }
      ],
      "stateMutability": "view",
      "type": "function"
    },
    {
      "inputs": [],
      "name": "safeShake",
      "outputs": [],
      "stateMutability": "nonpayable",
      "type": "function"
    },
    {
      "inputs": [],
      "name": "shake",
      "outputs": [],
      "stateMutability": "nonpayable",
      "type": "function"
    },
    {
      "inputs": [
        {
          "internalType": "address",
          "name": "",
          "type": "address"
        }
      ],
      "name": "shares",
      "outputs": [
        {
          "internalType": "uint16",
          "name": "",
          "type": "uint16"
        }
      ],
      "stateMutability": "view",
      "type": "function"
    },
    {
      "inputs": [],
      "name": "totalReleased",
      "outputs": [
        {
          "internalType": "uint256",
          "name": "",
          "type": "uint256"
        }
      ],
      "stateMutability": "view",
      "type": "function"
    },
    {
      "inputs": [
        {
          "internalType": "address",
          "name": "from",
          "type": "address"
        },
        {
          "internalType": "address payable",
          "name": "to",
          "type": "address"
        }
      ],
      "name": "transferTo",
      "outputs": [],
      "stateMutability": "nonpayable",
      "type": "function"
    },
    {
      "inputs": [
        {
          "internalType": "address payable",
          "name": "account",
          "type": "address"
        }
      ],
      "name": "withdraw",
      "outputs": [],
      "stateMutability": "nonpayable",
      "type": "function"
    },
    {
      "inputs": [
        {
          "internalType": "address payable",
          "name": "account",
          "type": "address"
        }
      ],
      "name": "withdrawable",
      "outputs": [
        {
          "internalType": "uint256",
          "name": "",
          "type": "uint256"
        }
      ],
      "stateMutability": "view",
      "type": "function"
    },
    {
      "stateMutability": "payable",
      "type": "receive"
    }
  ],
  "transactionHash": "0xea70cb6710c9230be33a0716d7c42a986e4abb830fa82006d6a71b098061d06c",
  "args": [],
  "solcInputHash": "060bfd410e505c6a7b6baeae41816d77",
  "bytecode": "0x608060405234801561001057600080fd5b50600054610100900460ff1661002c5760005460ff1615610034565b6100346100d5565b61009b5760405162461bcd60e51b815260206004820152602e60248201527f496e697469616c697a61626c653a20636f6e747261637420697320616c72656160448201526d191e481a5b9a5d1a585b1a5e995960921b606482015260840160405180910390fd5b600054610100900460ff161580156100bd576000805461ffff19166101011790555b80156100cf576000805461ff00191690555b506100f6565b60006100ea306100f060201b610a441760201c565b15905090565b3b151590565b6111ba806101056000396000f3fe60806040526004361061009a5760003560e01c80639852595c11610069578063ce513b6f1161004e578063ce513b6f146101d7578063ce7c2ac2146101f7578063e33b7de31461023b57600080fd5b80639852595c14610161578063cb88ac16146101b757600080fd5b80631b5d4ee8146100f55780633b70babb1461010c57806351cff8d91461012c578063825f98d41461014c57600080fd5b366100f0577f6ef95f06320e7a25a04a175ca677b7052bdd97131872c2192525a629f51be770336040805173ffffffffffffffffffffffffffffffffffffffff90921682523460208301520160405180910390a1005b600080fd5b34801561010157600080fd5b5061010a610250565b005b34801561011857600080fd5b5061010a610127366004610e3b565b61043b565b34801561013857600080fd5b5061010a610147366004610e74565b6105e6565b34801561015857600080fd5b5061010a6105f2565b34801561016d57600080fd5b506101a461017c366004610e74565b73ffffffffffffffffffffffffffffffffffffffff1660009081526034602052604090205490565b6040519081526020015b60405180910390f35b3480156101c357600080fd5b5061010a6101d2366004610f38565b61067e565b3480156101e357600080fd5b506101a46101f2366004610e74565b610960565b34801561020357600080fd5b50610228610212366004610e74565b60356020526000908152604090205461ffff1681565b60405161ffff90911681526020016101ae565b34801561024757600080fd5b506033546101a4565b600060335447610260919061104f565b905060005b6036548110156104375760006103016036838154811061028757610287611067565b9060005260206000200160009054906101000a900473ffffffffffffffffffffffffffffffffffffffff168460346000603687815481106102ca576102ca611067565b600091825260208083209091015473ffffffffffffffffffffffffffffffffffffffff168352820192909252604001902054610a4a565b1115610425573073ffffffffffffffffffffffffffffffffffffffff166351cff8d96036838154811061033657610336611067565b60009182526020909120015460405160e083901b7fffffffff0000000000000000000000000000000000000000000000000000000016815273ffffffffffffffffffffffffffffffffffffffff9091166004820152602401600060405180830381600087803b1580156103a857600080fd5b505af19250505080156103b9575060015b610425577f36899e48161ee4504f5f89aa55f7aed73460d464cb62f64e03057df7dbcdd0aa603682815481106103f1576103f1611067565b6000918252602091829020015460405173ffffffffffffffffffffffffffffffffffffffff90911681520160405180910390a15b8061042f81611096565b915050610265565b5050565b73ffffffffffffffffffffffffffffffffffffffff821660009081526035602052604090205461ffff166104d0576040517f08c379a000000000000000000000000000000000000000000000000000000000815260206004820152601f60248201527f53706c69747465723a206e6f2073686172657320746f207472616e736665720060448201526064015b60405180910390fd5b73ffffffffffffffffffffffffffffffffffffffff8083166000908152603560205260408082205492841682528120805461ffff93841693919291610517918591166110cf565b825461ffff9182166101009390930a92830291909202199091161790555073ffffffffffffffffffffffffffffffffffffffff808316600090815260356020908152604080832080547fffffffffffffffffffffffffffffffffffffffffffffffffffffffffffff00001690556034909152808220549284168252812080549091906105a490849061104f565b909155505073ffffffffffffffffffffffffffffffffffffffff82166000908152603460205260408120805482906105dd90829061104f565b90915550505050565b6105ef81610aa0565b50565b600060335447610602919061104f565b905060005b6036548110156104375760006106296036838154811061028757610287611067565b111561066c5761066c6036828154811061064557610645611067565b60009182526020909120015473ffffffffffffffffffffffffffffffffffffffff16610aa0565b8061067681611096565b915050610607565b600054610100900460ff166106995760005460ff161561069d565b303b155b610729576040517f08c379a000000000000000000000000000000000000000000000000000000000815260206004820152602e60248201527f496e697469616c697a61626c653a20636f6e747261637420697320616c72656160448201527f647920696e697469616c697a656400000000000000000000000000000000000060648201526084016104c7565b600054610100900460ff1615801561076857600080547fffffffffffffffffffffffffffffffffffffffffffffffffffffffffffff0000166101011790555b6000805b83518110156108c157603684828151811061078957610789611067565b6020908102919091018101515182546001810184556000938452919092200180547fffffffffffffffffffffffff00000000000000000000000000000000000000001673ffffffffffffffffffffffffffffffffffffffff90921691909117905583518490829081106107fe576107fe611067565b6020026020010151602001516035600086848151811061082057610820611067565b60200260200101516000015173ffffffffffffffffffffffffffffffffffffffff1673ffffffffffffffffffffffffffffffffffffffff16815260200190815260200160002060006101000a81548161ffff021916908361ffff16021790555083818151811061089257610892611067565b60200260200101516020015161ffff16826108ad919061104f565b9150806108b981611096565b91505061076c565b50806127101461092d576040517f08c379a000000000000000000000000000000000000000000000000000000000815260206004820152601b60248201527f53686172657320646f6e27742073756d20757020746f2031303025000000000060448201526064016104c7565b50801561043757600080547fffffffffffffffffffffffffffffffffffffffffffffffffffffffffffff00ff1690555050565b73ffffffffffffffffffffffffffffffffffffffff811660009081526035602052604081205461ffff166109f0576040517f08c379a000000000000000000000000000000000000000000000000000000000815260206004820152601f60248201527f53706c69747465723a206163636f756e7420686173206e6f207368617265730060448201526064016104c7565b60006109fb60335490565b610a05904761104f565b9050610a3d8382610a388673ffffffffffffffffffffffffffffffffffffffff1660009081526034602052604090205490565b610a4a565b9392505050565b3b151590565b73ffffffffffffffffffffffffffffffffffffffff8316600090815260356020526040812054829061271090610a849061ffff16866110f5565b610a8e9190611132565b610a98919061116d565b949350505050565b73ffffffffffffffffffffffffffffffffffffffff811660009081526035602052604090205461ffff16610b30576040517f08c379a000000000000000000000000000000000000000000000000000000000815260206004820152601f60248201527f53706c69747465723a206163636f756e7420686173206e6f207368617265730060448201526064016104c7565b6000610b3b60335490565b610b45904761104f565b90506000610b7a8383610a388673ffffffffffffffffffffffffffffffffffffffff1660009081526034602052604090205490565b905080610c08576040517f08c379a0000000000000000000000000000000000000000000000000000000008152602060048201526024808201527f53706c69747465723a206163636f756e74206973206e6f74206475652070617960448201527f6d656e740000000000000000000000000000000000000000000000000000000060648201526084016104c7565b73ffffffffffffffffffffffffffffffffffffffff831660009081526034602052604081208054839290610c3d90849061104f565b925050819055508060336000828254610c56919061104f565b90915550610c6690508382610cba565b6040805173ffffffffffffffffffffffffffffffffffffffff85168152602081018390527fdf20fd1e76bc69d672e4814fafb2c449bba3a5369d8359adf9e05e6fde87b056910160405180910390a1505050565b80471015610d24576040517f08c379a000000000000000000000000000000000000000000000000000000000815260206004820152601d60248201527f416464726573733a20696e73756666696369656e742062616c616e636500000060448201526064016104c7565b60008273ffffffffffffffffffffffffffffffffffffffff168260405160006040518083038185875af1925050503d8060008114610d7e576040519150601f19603f3d011682016040523d82523d6000602084013e610d83565b606091505b5050905080610e14576040517f08c379a000000000000000000000000000000000000000000000000000000000815260206004820152603a60248201527f416464726573733a20756e61626c6520746f2073656e642076616c75652c207260448201527f6563697069656e74206d6179206861766520726576657274656400000000000060648201526084016104c7565b505050565b73ffffffffffffffffffffffffffffffffffffffff811681146105ef57600080fd5b60008060408385031215610e4e57600080fd5b8235610e5981610e19565b91506020830135610e6981610e19565b809150509250929050565b600060208284031215610e8657600080fd5b8135610a3d81610e19565b7f4e487b7100000000000000000000000000000000000000000000000000000000600052604160045260246000fd5b6040805190810167ffffffffffffffff81118282101715610ee357610ee3610e91565b60405290565b604051601f82017fffffffffffffffffffffffffffffffffffffffffffffffffffffffffffffffe016810167ffffffffffffffff81118282101715610f3057610f30610e91565b604052919050565b60006020808385031215610f4b57600080fd5b823567ffffffffffffffff80821115610f6357600080fd5b818501915085601f830112610f7757600080fd5b813581811115610f8957610f89610e91565b610f97848260051b01610ee9565b818152848101925060069190911b830184019087821115610fb757600080fd5b928401925b818410156110155760408489031215610fd55760008081fd5b610fdd610ec0565b8435610fe881610e19565b81528486013561ffff81168114610fff5760008081fd5b8187015283526040939093019291840191610fbc565b979650505050505050565b7f4e487b7100000000000000000000000000000000000000000000000000000000600052601160045260246000fd5b6000821982111561106257611062611020565b500190565b7f4e487b7100000000000000000000000000000000000000000000000000000000600052603260045260246000fd5b60007fffffffffffffffffffffffffffffffffffffffffffffffffffffffffffffffff8214156110c8576110c8611020565b5060010190565b600061ffff8083168185168083038211156110ec576110ec611020565b01949350505050565b6000817fffffffffffffffffffffffffffffffffffffffffffffffffffffffffffffffff048311821515161561112d5761112d611020565b500290565b600082611168577f4e487b7100000000000000000000000000000000000000000000000000000000600052601260045260246000fd5b500490565b60008282101561117f5761117f611020565b50039056fea2646970667358221220027bf60607f2c4da0f027c709091b14f3ea29afe3311c762ee83583c429896a764736f6c63430008090033",
  "devdoc": {
    "kind": "dev",
    "methods": {
      "released(address)": {
        "details": "Getter for the amount of Ether already released to a payee."
      },
      "totalReleased()": {
        "details": "Getter for the total amount of Ether already released."
      },
      "withdraw(address)": {
        "details": "Triggers a transfer to `account` of the amount of Ether they are owed, according to their percentage of the total shares and their previous withdrawals."
      }
    },
    "version": 1
  },
  "userdoc": {
    "kind": "user",
    "methods": {},
    "version": 1
  },
  "storageLayout": {
    "storage": [
      {
        "astId": 642,
        "contract": "contracts/splitters/ShakeableSplitter.sol:ShakeableSplitter",
        "label": "_initialized",
        "offset": 0,
        "slot": "0",
        "type": "t_bool"
      },
      {
        "astId": 645,
        "contract": "contracts/splitters/ShakeableSplitter.sol:ShakeableSplitter",
        "label": "_initializing",
        "offset": 1,
        "slot": "0",
        "type": "t_bool"
      },
      {
        "astId": 1108,
        "contract": "contracts/splitters/ShakeableSplitter.sol:ShakeableSplitter",
        "label": "__gap",
        "offset": 0,
        "slot": "1",
        "type": "t_array(t_uint256)50_storage"
      },
      {
        "astId": 3564,
        "contract": "contracts/splitters/ShakeableSplitter.sol:ShakeableSplitter",
        "label": "_totalReleased",
        "offset": 0,
        "slot": "51",
        "type": "t_uint256"
      },
      {
        "astId": 3568,
        "contract": "contracts/splitters/ShakeableSplitter.sol:ShakeableSplitter",
        "label": "_released",
        "offset": 0,
        "slot": "52",
        "type": "t_mapping(t_address,t_uint256)"
      },
      {
        "astId": 3572,
        "contract": "contracts/splitters/ShakeableSplitter.sol:ShakeableSplitter",
        "label": "shares",
        "offset": 0,
        "slot": "53",
        "type": "t_mapping(t_address,t_uint16)"
      },
      {
        "astId": 3575,
        "contract": "contracts/splitters/ShakeableSplitter.sol:ShakeableSplitter",
        "label": "_payees",
        "offset": 0,
        "slot": "54",
        "type": "t_array(t_address)dyn_storage"
      }
    ],
    "types": {
      "t_address": {
        "encoding": "inplace",
        "label": "address",
        "numberOfBytes": "20"
      },
      "t_array(t_address)dyn_storage": {
        "base": "t_address",
        "encoding": "dynamic_array",
        "label": "address[]",
        "numberOfBytes": "32"
      },
      "t_array(t_uint256)50_storage": {
        "base": "t_uint256",
        "encoding": "inplace",
        "label": "uint256[50]",
        "numberOfBytes": "1600"
      },
      "t_bool": {
        "encoding": "inplace",
        "label": "bool",
        "numberOfBytes": "1"
      },
      "t_mapping(t_address,t_uint16)": {
        "encoding": "mapping",
        "key": "t_address",
        "label": "mapping(address => uint16)",
        "numberOfBytes": "32",
        "value": "t_uint16"
      },
      "t_mapping(t_address,t_uint256)": {
        "encoding": "mapping",
        "key": "t_address",
        "label": "mapping(address => uint256)",
        "numberOfBytes": "32",
        "value": "t_uint256"
      },
      "t_uint16": {
        "encoding": "inplace",
        "label": "uint16",
        "numberOfBytes": "2"
      },
      "t_uint256": {
        "encoding": "inplace",
        "label": "uint256",
        "numberOfBytes": "32"
      }
    }
  }
}