{
  "address": "0xABFE680298f34c2d2F2C5f392dFAB8d2b79A51Ed",
  "abi": [
    {
      "inputs": [],
      "stateMutability": "nonpayable",
      "type": "constructor"
    },
    {
      "anonymous": false,
      "inputs": [
        {
          "indexed": true,
          "internalType": "bytes32",
          "name": "splitterType",
          "type": "bytes32"
        },
        {
          "indexed": true,
          "internalType": "address",
          "name": "creator",
          "type": "address"
        },
        {
          "indexed": false,
          "internalType": "address",
          "name": "contractAddress",
          "type": "address"
        }
      ],
      "name": "AddedSplitterType",
      "type": "event"
    },
    {
      "anonymous": false,
      "inputs": [
        {
          "indexed": true,
          "internalType": "uint256",
          "name": "index",
          "type": "uint256"
        },
        {
          "indexed": true,
          "internalType": "bytes32",
          "name": "splitterType",
          "type": "bytes32"
        },
        {
          "indexed": true,
          "internalType": "address",
          "name": "creator",
          "type": "address"
        },
        {
          "indexed": false,
          "internalType": "address",
          "name": "contractAddress",
          "type": "address"
        },
        {
          "components": [
            {
              "internalType": "address payable",
              "name": "payee",
              "type": "address"
            },
            {
              "internalType": "uint16",
              "name": "bps",
              "type": "uint16"
            }
          ],
          "indexed": false,
          "internalType": "struct ISplitter.Shares[]",
          "name": "shares",
          "type": "tuple[]"
        }
      ],
      "name": "CreatedSplitter",
      "type": "event"
    },
    {
      "anonymous": false,
      "inputs": [
        {
          "indexed": true,
          "internalType": "address",
          "name": "previousOwner",
          "type": "address"
        },
        {
          "indexed": true,
          "internalType": "address",
          "name": "newOwner",
          "type": "address"
        }
      ],
      "name": "OwnershipTransferred",
      "type": "event"
    },
    {
      "inputs": [
        {
          "internalType": "bytes32",
          "name": "splitterType",
          "type": "bytes32"
        },
        {
          "internalType": "address",
          "name": "implementation",
          "type": "address"
        }
      ],
      "name": "addSplitterType",
      "outputs": [],
      "stateMutability": "nonpayable",
      "type": "function"
    },
    {
      "inputs": [
        {
          "internalType": "bytes32",
          "name": "splitterType",
          "type": "bytes32"
        },
        {
          "components": [
            {
              "internalType": "address payable",
              "name": "payee",
              "type": "address"
            },
            {
              "internalType": "uint16",
              "name": "bps",
              "type": "uint16"
            }
          ],
          "internalType": "struct ISplitter.Shares[]",
          "name": "shares",
          "type": "tuple[]"
        }
      ],
      "name": "create",
      "outputs": [
        {
          "internalType": "address payable",
          "name": "",
          "type": "address"
        }
      ],
      "stateMutability": "nonpayable",
      "type": "function"
    },
    {
      "inputs": [
        {
          "internalType": "bytes32",
          "name": "splitterType",
          "type": "bytes32"
        },
        {
          "internalType": "uint256",
          "name": "index",
          "type": "uint256"
        }
      ],
      "name": "get",
      "outputs": [
        {
          "internalType": "contract ISplitter",
          "name": "",
          "type": "address"
        }
      ],
      "stateMutability": "view",
      "type": "function"
    },
    {
      "inputs": [],
      "name": "instances",
      "outputs": [
        {
          "internalType": "uint256",
          "name": "",
          "type": "uint256"
        }
      ],
      "stateMutability": "view",
      "type": "function"
    },
    {
      "inputs": [],
      "name": "owner",
      "outputs": [
        {
          "internalType": "address",
          "name": "",
          "type": "address"
        }
      ],
      "stateMutability": "view",
      "type": "function"
    },
    {
      "inputs": [],
      "name": "renounceOwnership",
      "outputs": [],
      "stateMutability": "nonpayable",
      "type": "function"
    },
    {
      "inputs": [
        {
          "internalType": "address",
          "name": "newOwner",
          "type": "address"
        }
      ],
      "name": "transferOwnership",
      "outputs": [],
      "stateMutability": "nonpayable",
      "type": "function"
    }
  ],
  "transactionHash": "0xf381645887809f2346b03970400eac9c208da25ffcf7ad0ad72dff5eacae4449",
  "args": [],
  "solcInputHash": "060bfd410e505c6a7b6baeae41816d77",
  "bytecode": "0x608060405234801561001057600080fd5b5061001a3361001f565b61006f565b600080546001600160a01b038381166001600160a01b0319831681178455604051919092169283917f8be0079c531659141344cd1fd0a4f28419497f9722a3daafe3b4186f6b6457e09190a35050565b610bcc8061007e6000396000f3fe608060405234801561001057600080fd5b506004361061007d5760003560e01c8063715018a61161005b578063715018a6146100e85780638da5cb5b146100f25780639f2c391314610110578063f2fde38b1461012357600080fd5b806318ae19c2146100825780632dba7b10146100bf5780634d2ace66146100d2575b600080fd5b61009561009036600461087e565b610136565b60405173ffffffffffffffffffffffffffffffffffffffff90911681526020015b60405180910390f35b6100956100cd366004610969565b610204565b6100da610359565b6040519081526020016100b6565b6100f0610369565b005b60005473ffffffffffffffffffffffffffffffffffffffff16610095565b6100f061011e366004610a5b565b6103fb565b6100f0610131366004610a8b565b6105fb565b60008281526002602090815260408083205481519283018590526101fb9273ffffffffffffffffffffffffffffffffffffffff909116910160405160208183030381529060405261018690610aaf565b306040517f3d602d80600a3d3981f3363d3d373d3d3d363d730000000000000000000000008152606093841b60148201527f5af43d82803e903d91602b57fd5bf3ff000000000000000000000000000000006028820152921b6038830152604c8201526037808220606c830152605591012090565b90505b92915050565b60008061021060015490565b6000858152600260209081526040808320548151928301859052939450919261026a9273ffffffffffffffffffffffffffffffffffffffff909116910160405160208183030381529060405261026590610aaf565b61072b565b6040517fcb88ac1600000000000000000000000000000000000000000000000000000000815290915073ffffffffffffffffffffffffffffffffffffffff82169063cb88ac16906102bf908790600401610b54565b600060405180830381600087803b1580156102d957600080fd5b505af11580156102ed573d6000803e3d6000fd5b505050503373ffffffffffffffffffffffffffffffffffffffff1685837f67b4778dcbf9bd2f05225a7c7c61a3ae6c4f0029443328396b82fa024217b9cc848860405161033b929190610b67565b60405180910390a4610351600180546001019055565b949350505050565b600061036460015490565b905090565b60005473ffffffffffffffffffffffffffffffffffffffff1633146103ef576040517f08c379a000000000000000000000000000000000000000000000000000000000815260206004820181905260248201527f4f776e61626c653a2063616c6c6572206973206e6f7420746865206f776e657260448201526064015b60405180910390fd5b6103f96000610809565b565b60005473ffffffffffffffffffffffffffffffffffffffff16331461047c576040517f08c379a000000000000000000000000000000000000000000000000000000000815260206004820181905260248201527f4f776e61626c653a2063616c6c6572206973206e6f7420746865206f776e657260448201526064016103e6565b803b6104e4576040517f08c379a000000000000000000000000000000000000000000000000000000000815260206004820152600e60248201527f4e6f74206120636f6e747261637400000000000000000000000000000000000060448201526064016103e6565b60008281526002602052604090205473ffffffffffffffffffffffffffffffffffffffff1615610570576040517f08c379a000000000000000000000000000000000000000000000000000000000815260206004820152601d60248201527f53706c6974746572207479706520616c726561647920646566696e656400000060448201526064016103e6565b60008281526002602090815260409182902080547fffffffffffffffffffffffff00000000000000000000000000000000000000001673ffffffffffffffffffffffffffffffffffffffff85169081179091559151918252339184917fcd1a198d1bbaee59743439d5e40021114700cab0fdfb0af667999b2ca0765d35910160405180910390a35050565b60005473ffffffffffffffffffffffffffffffffffffffff16331461067c576040517f08c379a000000000000000000000000000000000000000000000000000000000815260206004820181905260248201527f4f776e61626c653a2063616c6c6572206973206e6f7420746865206f776e657260448201526064016103e6565b73ffffffffffffffffffffffffffffffffffffffff811661071f576040517f08c379a000000000000000000000000000000000000000000000000000000000815260206004820152602660248201527f4f776e61626c653a206e6577206f776e657220697320746865207a65726f206160448201527f646472657373000000000000000000000000000000000000000000000000000060648201526084016103e6565b61072881610809565b50565b60006040517f3d602d80600a3d3981f3363d3d373d3d3d363d7300000000000000000000000081528360601b60148201527f5af43d82803e903d91602b57fd5bf300000000000000000000000000000000006028820152826037826000f591505073ffffffffffffffffffffffffffffffffffffffff81166101fe576040517f08c379a000000000000000000000000000000000000000000000000000000000815260206004820152601760248201527f455243313136373a2063726561746532206661696c656400000000000000000060448201526064016103e6565b6000805473ffffffffffffffffffffffffffffffffffffffff8381167fffffffffffffffffffffffff0000000000000000000000000000000000000000831681178455604051919092169283917f8be0079c531659141344cd1fd0a4f28419497f9722a3daafe3b4186f6b6457e09190a35050565b6000806040838503121561089157600080fd5b50508035926020909101359150565b7f4e487b7100000000000000000000000000000000000000000000000000000000600052604160045260246000fd5b6040805190810167ffffffffffffffff811182821017156108f2576108f26108a0565b60405290565b604051601f82017fffffffffffffffffffffffffffffffffffffffffffffffffffffffffffffffe016810167ffffffffffffffff8111828210171561093f5761093f6108a0565b604052919050565b73ffffffffffffffffffffffffffffffffffffffff8116811461072857600080fd5b600080604080848603121561097d57600080fd5b8335925060208085013567ffffffffffffffff8082111561099d57600080fd5b818701915087601f8301126109b157600080fd5b8135818111156109c3576109c36108a0565b6109d1848260051b016108f8565b818152848101925060069190911b8301840190898211156109f157600080fd5b928401925b81841015610a4b5785848b031215610a0e5760008081fd5b610a166108cf565b8435610a2181610947565b81528486013561ffff81168114610a385760008081fd5b81870152835292850192918401916109f6565b8096505050505050509250929050565b60008060408385031215610a6e57600080fd5b823591506020830135610a8081610947565b809150509250929050565b600060208284031215610a9d57600080fd5b8135610aa881610947565b9392505050565b80516020808301519190811015610aee577fffffffffffffffffffffffffffffffffffffffffffffffffffffffffffffffff8160200360031b1b821691505b50919050565b600081518084526020808501945080840160005b83811015610b49578151805173ffffffffffffffffffffffffffffffffffffffff16885283015161ffff168388015260409096019590820190600101610b08565b509495945050505050565b6020815260006101fb6020830184610af4565b73ffffffffffffffffffffffffffffffffffffffff831681526040602082015260006103516040830184610af456fea264697066735822122006981b063aad16561b12414e278238ce6aa8c6a5209a194327395a8070dbc0a164736f6c63430008090033",
  "devdoc": {
    "events": {
      "AddedSplitterType(bytes32,address,address)": {
        "params": {
          "contractAddress": "the address of the splitting contract template",
          "creator": "address adding the splitter template",
          "splitterType": "the type of splitter"
        }
      },
      "CreatedSplitter(uint256,bytes32,address,address,(address,uint16)[])": {
        "params": {
          "contractAddress": "the address of the splitting contract",
          "creator": "the edition's owner",
          "index": "the identifier of newly created edition",
          "shares": "the shares splitting rules",
          "splitterType": "the type of splitter"
        }
      }
    },
    "kind": "dev",
    "methods": {
      "addSplitterType(bytes32,address)": {
        "params": {
          "implementation": "ISplitter implementation contract to clone",
          "splitterType": "type of splitter"
        }
      },
      "create(bytes32,(address,uint16)[])": {
        "params": {
          "shares": "list of tuples representing the payees and their shares in bps",
          "splitterType": "type of splitter"
        }
      },
      "get(bytes32,uint256)": {
        "params": {
          "index": "id of splitter to get contract for",
          "splitterType": "type of splitter"
        },
        "returns": {
          "_0": "the Splitter payment contract"
        }
      },
      "instances()": {
        "returns": {
          "_0": "the number of splitter instances released so far"
        }
      },
      "owner()": {
        "details": "Returns the address of the current owner."
      },
      "renounceOwnership()": {
        "details": "Leaves the contract without owner. It will not be possible to call `onlyOwner` functions anymore. Can only be called by the current owner. NOTE: Renouncing ownership will leave the contract without an owner, thereby removing any functionality that is only available to the owner."
      },
      "transferOwnership(address)": {
        "details": "Transfers ownership of the contract to a new account (`newOwner`). Can only be called by the current owner."
      }
    },
    "version": 1
  },
  "userdoc": {
    "events": {
      "AddedSplitterType(bytes32,address,address)": {
        "notice": "Emitted when a splitter type is added. "
      },
      "CreatedSplitter(uint256,bytes32,address,address,(address,uint16)[])": {
        "notice": "Emitted when a splitter is created. "
      }
    },
    "kind": "user",
    "methods": {
      "addSplitterType(bytes32,address)": {
        "notice": "Initializes the factory with the address of the implementation contract template "
      },
      "create(bytes32,(address,uint16)[])": {
        "notice": "Creates a new splitter contract as a factory with a deterministic address, returning the address of the newly created splitter contract. Returns the id of the created splitter contract. "
      },
      "get(bytes32,uint256)": {
        "notice": "Gets a splitter given the unique identifier "
      }
    },
    "version": 1
  },
  "storageLayout": {
    "storage": [
      {
        "astId": 1466,
        "contract": "contracts/splitters/SplitterFactory.sol:SplitterFactory",
        "label": "_owner",
        "offset": 0,
        "slot": "0",
        "type": "t_address"
      },
      {
        "astId": 3994,
        "contract": "contracts/splitters/SplitterFactory.sol:SplitterFactory",
        "label": "_counter",
        "offset": 0,
        "slot": "1",
        "type": "t_struct(Counter)2064_storage"
      },
      {
        "astId": 3998,
        "contract": "contracts/splitters/SplitterFactory.sol:SplitterFactory",
        "label": "_implementations",
        "offset": 0,
        "slot": "2",
        "type": "t_mapping(t_bytes32,t_address)"
      }
    ],
    "types": {
      "t_address": {
        "encoding": "inplace",
        "label": "address",
        "numberOfBytes": "20"
      },
      "t_bytes32": {
        "encoding": "inplace",
        "label": "bytes32",
        "numberOfBytes": "32"
      },
      "t_mapping(t_bytes32,t_address)": {
        "encoding": "mapping",
        "key": "t_bytes32",
        "label": "mapping(bytes32 => address)",
        "numberOfBytes": "32",
        "value": "t_address"
      },
      "t_struct(Counter)2064_storage": {
        "encoding": "inplace",
        "label": "struct Counters.Counter",
        "members": [
          {
            "astId": 2063,
            "contract": "contracts/splitters/SplitterFactory.sol:SplitterFactory",
            "label": "_value",
            "offset": 0,
            "slot": "0",
            "type": "t_uint256"
          }
        ],
        "numberOfBytes": "32"
      },
      "t_uint256": {
        "encoding": "inplace",
        "label": "uint256",
        "numberOfBytes": "32"
      }
    }
  }
}